:100000004EC068C067C066C065C064C063C062C0DF
:1000100061C060C05FC05EC05DC05CC05BC05AC0F4
:1000200059C058C057C00086220808080802390F76
:100030000846804080083F065B4F666D7D077F6FF6
:1000400008080848085308777C395E79713D7606C0
:100050000E083854543F7367316D783E0808086EB7
:100060004939080F0108205F7C585E7B713D74049C
:100070000C083008545C7367506D781C0808086ED3
:100080004939300F405D2D556E69626F6172642D84
:100090000048454C4C4F2047697468756200112434
:1000A0001FBECFE5D4E0DEBFCDBF10E0A0E6B0E0DC
:1000B000EEE5F4E002C005900D92A436B107D9F741
:1000C00020E0A4E6B0E001C01D92A139B207E1F73B
:1000D0007DD1C3C195CF1F93CF93DF93A0916600CD
:1000E000EA2FF0E0E159FF4FAA2309F45EC0B0E027
:1000F000A259BF4F1C91812F8D7F8C3209F057C0C0
:1001000057C09C01220F331FA9014F5F5F4FDA01D7
:10011000A959BF4F1C92662329F0D901A959BF4F95
:100120001C9235C07081772361F1A72FAD7FAC326F
:10013000A9F41D7F1C3249F4DA01A959BF4FDC93A1
:10014000D901A959BF4FDC931DC07181D901A959AB
:10015000BF4F7C937723B1F0319614C0A181AD7F5E
:10016000AC3251F4D901A959BF4F7C93DA01A95996
:10017000BF4FDC93319606C0D901A959BF4F7C937C
:1001800001C06C2FDA01A959BF4F1C91319601961D
:100190008430910509F0B5CF6093650080818111AD
:1001A0000EC081E0809365000AC010E001C010E03D
:1001B0006091650080E090E0C1E0DEE2A2CFDF91D7
:1001C000CF911F91089590916400E92FF0E0E959D3
:1001D000FF4F31812081969548B3407F48BB3D7FDA
:1001E0003C3211F030E001C030E8203B19F4E32F3D
:1001F000E36611C0222371F040EE420F403618F042
:10020000E32FE86008C0E22FF0E0EA5FFF4FE491DF
:10021000E32B01C0E32FE0FF02C0A89A01C0A89819
:10022000E1FF02C0A99A01C0A998E2FF02C0AA9A00
:1002300001C0AA98E3FF02C0AB9A01C0AB98E4FFEB
:1002400002C0949A01C09498E5FF02C0959A01C03B
:100250009598E6FF02C0969A01C09698EE2314F492
:10026000979A01C09798913041F028F0923039F078
:10027000933039F007C0C39A05C0C29A03C0C19A2F
:1002800001C0C09A909164009E5F983018F49093DA
:10029000640002C01092640020918F0030919000A1
:1002A000A901480F511DCA015093900040938F003F
:1002B00020916500222329F08C3D55E09507D8F563
:1002C000089530916600311131C04C3D25E0520750
:1002D000C8F50895809166008F5F8093660004C022
:1002E000109266001092650020916600222399F01A
:1002F000822F90E0FC01E159FF4F30813D7F3C327D
:1003000051F4FC01E259FF4F80818D7F8C3219F04E
:100310002F5F20936600DFDE0895845F9140909305
:10032000900080938F002223A9F2DACF443F31E07E
:10033000530798F708958C5D9540909390008093B3
:100340008F00CECF8C5D95409093900080938F006E
:10035000C1CF20E2EFE6F0E0DF011D922A95E9F738
:1003600040E250E0BC01CF015AD0109266001092DA
:1003700065001092900010928F00ADDE80E023DFC8
:10038000089520E2EFE6F0E0DF011D922A95E9F7FB
:1003900040E250E0BC01CF0151D0109266001092B3
:1003A00065001092900010928F0088E0E7E6F0E080
:1003B000DF011D928A95E9F78EDE80E004DF089563
:1003C0008FE087BB84BB80EF81BB0895F9DF81E9B3
:1003D00090E0BFDF00E010E0C02FD12F81E0F3DE1E
:1003E0008FEC97E00197F1F700C000002196C03232
:1003F0009EE4D90721F486E890E0ABDFEFCFC0336D
:1004000085E7D80721F480E690E0BBDFE7CFC03472
:100410009CE9D90719F781E990E09BDFDDCFFB016B
:10042000DC014150504048F005900D920020C9F782
:1004300001C01D9241505040E0F70895FB01DC01DE
:100440004150504048F001900D920020C9F701C082
:0E0450001D9241505040E0F70895F894FFCF00
:04045E0020486900C9
:00000001FF
