:100000004EC068C067C066C065C064C063C062C0DF
:1000100061C060C05FC05EC05DC05CC05BC05AC0F4
:1000200059C058C057C00086220808080802390F76
:100030000846804080083F065B4F666D7D077F6FF6
:1000400008080848085308777C395E79713D7606C0
:100050000E083854543F7367316D783E0808086EB7
:100060004939080F0108205F7C585E7B713D74049C
:100070000C083008545C7367506D781C0808086ED3
:100080004939300F405D2D556E69626F6172642D84
:100090000048454C4C4F2047697468756200112434
:1000A0001FBECFE5D4E0DEBFCDBF10E0A0E6B0E0DC
:1000B000E8EAF4E002C005900D92A436B107D9F742
:1000C00020E0A4E6B0E001C01D92AD38B207E1F730
:1000D000A2D1E8C195CF1F93CF93DF93A091660083
:1000E000EA2FF0E0E559FF4FAA2309F45EC0B0E023
:1000F000A659BF4F7C91872F8D7F8C3209F057C056
:1001000057C09C01220F331FA9014F5F5F4FDA01D7
:10011000A959BF4F1C92662329F0D901A959BF4F95
:100120001C9235C01081112361F1B12FBD7FBC320B
:10013000A9F47D7F7C3249F4DA01A959BF4FDC93E1
:10014000D901A959BF4FDC931DC07181D901A959AB
:10015000BF4F7C937723B1F0319614C071817D7FBE
:100160007C3251F429593F4FD9011C93DA01A95926
:10017000BF4FDC93319606C029593F4FD9011C93DC
:1001800001C06C2FDA01A959BF4F7C9131960196BD
:100190008230910509F0B5CF6093650080818111AF
:1001A0000EC081E0809365000AC070E001C070E07D
:1001B0006091650080E090E0C1E0DEE2A2CFDF91D7
:1001C000CF911F91089540916400242F30E0F901F0
:1001D000E959FF4F90814695F901E859FF4F208179
:1001E0002D7F2C3211F020E001C020E8903B19F463
:1001F000E22FE36611C0992371F030EE390F3036EB
:1002000018F0E22FE86008C0E92FF0E0EA5FFF4F46
:10021000E491E22B01C0E22FE095413049F5E0FF87
:1002200002C0A89A01C0A898E1FF02C0A99A01C023
:10023000A998E2FF02C0AA9A01C0AA98E3FF02C0EF
:10024000AB9A01C0AB98E4FF02C0949A01C09498A5
:10025000E5FF02C0959A01C09598E6FF02C0969A04
:1002600001C09698EE2314F4979A2CC097982AC050
:10027000411128C0E0FF02C0C09A01C0C098E1FF50
:1002800002C0C19A01C0C198E2FF02C0C29A01C077
:10029000C298E3FF02C0C39A01C0C398E4FF02C042
:1002A000C49A01C0C498E5FF02C0C59A01C0C598B0
:1002B000E6FF02C0C69A01C0C698EE2314F4C79A9E
:1002C00001C0C798909164009E5F943018F4909399
:1002D000640002C01092640020918B0030918C0069
:1002E000A901480F511DCA0150938C0040938B0007
:1002F00020916500222329F08C3D55E09507D8F523
:10030000089530916600311131C04C3D25E052070F
:10031000C8F50895809166008F5F8093660004C0E1
:10032000109266001092650020916600222399F0D9
:10033000822F90E0FC01E559FF4F30813D7F3C3238
:1003400051F4FC01E659FF4F80818D7F8C3219F00A
:100350002F5F20936600BFDE0895845F91409093E5
:100360008C0080938B002223A9F2DACF443F31E046
:10037000530798F708958C5D954090938C00809377
:100380008B00CECF8C5D954090938C0080938B003A
:10039000C1CF20E2EBE6F0E0DF011D922A95E9F7FC
:1003A00040E250E0BC01CF015FD010926600109295
:1003B000650010928C0010928B008DDE80E003DFD0
:1003C000089520E2EBE6F0E0DF011D922A95E9F7BF
:1003D00040E250E0BC01CF0156D01092660010926E
:1003E000650010928C0010928B00109267001092A2
:1003F00068001092690010926A006DDE80E0E3DE12
:1004000008958FE387BB8FE084BB80EF81BB87B308
:10041000806C87BB0895F5DF81E990E0BADF00E0EA
:1004200010E0C02FD12F81E0CEDE8FEC97E0019756
:10043000F1F700C000002196C0329EE4D90721F4F4
:1004400086E890E0A6DFEFCFC03385E7D80721F438
:1004500080E690E0B6DFE7CFC0349CE9D90719F712
:1004600081E990E096DFDDCFFB01DC014150504097
:1004700048F005900D920020C9F701C01D9241502F
:100480005040E0F70895FB01DC014150504048F036
:1004900001900D920020C9F701C01D9241505040BB
:0804A000E0F70895F894FFCF86
:0404A800204869007F
:00000001FF
