:1000000042C05CC05BC05AC059C058C057C056C03F
:1000100055C0B8C153C052C051C050C04FC04EC0EF
:100020004DC04CC04BC00086220808080802390F9A
:100030000846804080083F065B4F666D7D077F6FF6
:1000400008080848085308777C395E79713D7606C0
:100050000E083854543F7367316D783E0808086EB7
:100060004939080F0108205F7C585E7B713D74049C
:100070000C083008545C7367506D781C0808086ED3
:100080004939300F405D11241FBECFE5D4E0DEBFFB
:10009000CDBF10E0A0E6B0E0EAE5F4E002C00590D4
:1000A0000D92A636B107D9F720E0A6E6B0E001C070
:1000B0001D92A339B207E1F7A7D1CDC1A1CF1F93FC
:1000C000CF93DF93A0916800EA2FF0E0EF58FF4F45
:1000D000AA2309F45EC0B0E0A059BF4F1C91812F44
:1000E0008D7F8C3209F057C057C09C01220F331FFF
:1000F000A9014F5F5F4FDA01A759BF4F1C926623DA
:1001000029F0D901A759BF4F1C9235C070817723C0
:1001100061F1A72FAD7FAC32A9F41D7F1C3249F4E9
:10012000DA01A759BF4FDC93D901A759BF4FDC9320
:100130001DC07181D901A759BF4F7C937723B1F0BE
:10014000319614C0A181AD7FAC3251F4D901A759C9
:10015000BF4F7C93DA01A759BF4FDC93319606C09D
:10016000D901A759BF4F7C9301C06C2FDA01A75961
:10017000BF4F1C91319601968430910509F0B5CF9F
:1001800060936700808181110EC081E080936700D9
:100190000AC010E001C010E06091670080E090E0CC
:1001A000C1E0DEE2A2CFDF91CF911F91089590913F
:1001B0006600E92FF0E0E759FF4F318120819695E5
:1001C00048B3407F48BB3D7F3C3211F030E001C076
:1001D00030E8203B19F4E32FE36611C0222371F0CD
:1001E00040EE420F403618F0E32FE86008C0E22FDF
:1001F000F0E0EA5FFF4FE491E32B01C0E32FE0FF63
:1002000002C0A89A01C0A898E1FF02C0A99A01C043
:10021000A998E2FF02C0AA9A01C0AA98E3FF02C00F
:10022000AB9A01C0AB98E4FF02C0949A01C09498C5
:10023000E5FF02C0959A01C09598E6FF02C0969A24
:1002400001C09698EE2314F4979A01C097989130C4
:1002500041F028F0923039F0933039F007C0C39A5A
:1002600005C0C29A03C0C19A01C0C09A90916600AD
:100270009E5F983018F49093660002C0109266005A
:100280002091910030919200A901480F511DCA019F
:10029000509392004093910020916700222329F00F
:1002A0008C3D55E09507D8F50895309168003111DF
:1002B00031C04C3D25E05207C8F508958091680093
:1002C0008F5F8093680004C01092680010926700EE
:1002D00020916800222399F0822F90E0FC01EF58D2
:1002E000FF4F30813D7F3C3251F4FC01E059FF4F1C
:1002F00080818D7F8C3219F02F5F20936800DFDEC4
:100300000895845F914090939200809391002223FE
:10031000A9F2DACF443F31E0530798F708958C5D96
:1003200095409093920080939100CECF8C5D954044
:100330009093920080939100C1CF20E2E1E7F0E03A
:10034000DF011D922A95E9F740E250E0BC01CF01A0
:1003500073D0109268001092670010929200109271
:10036000910088E0E9E6F0E0DF011D928A95E9F767
:10037000A6DE80E01CDF08958FE087BB84BB80EFA2
:1003800081BB08951F920F920FB60F9211248F9385
:10039000EF93FF9382B78D5782BFE3E6F0E0808151
:1003A0008F5F808380818A3340F080E38093630095
:1003B000E2E6F0E080818F5F8083809162008A3383
:1003C00040F080E380936200E1E6F0E080818F5F9F
:1003D0008083809161008A3340F080E380936100E4
:1003E000E0E6F0E080818F5F8083809160008A3357
:1003F00018F080E380936000FF91EF918F910F9050
:100400000FBE0F901F90189583E083BF89B781605E
:1004100089BFB2DF789410916300C3E6D0E0888191
:10042000811721F0188180E690E087DF81E0BFDE50
:1004300080EA8A95F1F7F3CFFB01DC01415050408F
:1004400048F001900D920020C9F701C01D92415063
:0A0450005040E0F70895F894FFCF44
:06045A00303030300000DC
:00000001FF
